:100000000C9463000C941B0A0C94F4090C948B0060
:100010000C948B000C948B000C948B000C94F608C1
:100020000C948B000C948B000C948B000C948B0024
:100030000C948B000C948B000C948B000C948B0014
:100040000C94AA090C948B000C9478090C94520916
:100050000C948B000C948B000C948B000C948B00F4
:100060000C94420A0C948B0000000000240027002E
:100070002A000000000023002600290000000008DC
:10008000000201000003040700000000000000005F
:10009000010204081020408001020408102001021F
:1000A0000408102000000000250028002B00040494
:1000B0000404040404040202020202020303030310
:1000C00003030200610B11241FBECFEFD8E0DEBF97
:1000D000CDBF15E0A0E0B1E0E2EDF7E202C005908F
:1000E0000D92A43DB107D9F727E0A4EDB5E001C01A
:1000F0001D92AD36B207E1F710E0C3E6D0E004C0D0
:100100002197FE010E94E113C236D107C9F70E9470
:10011000A90B0C94E7130C94000008950895AF9276
:10012000BF92CF92DF92EF92FF920F931F93CF93E4
:10013000DF936C017B018B01040F151FEB015E0146
:10014000AE18BF08C017D10759F06991D601ED91DB
:10015000FC910190F081E02DC6010995892B79F77A
:10016000C501DF91CF911F910F91FF90EF90DF902C
:10017000CF90BF90AF900895FC01538D448D252FF3
:1001800030E0842F90E0821B930B541710F0CF9631
:10019000089501970895FC01918D828D981761F063
:1001A000A28DAE0FBF2FB11D5D968C91928D9F5F7A
:1001B0009F73928F90E008958FEF9FEF0895FC0159
:1001C000918D828D981731F0828DE80FF11D858D0C
:1001D00090E008958FEF9FEF0895FC01918D228D9F
:1001E000892F90E0805C9F4F821B91098F73992724
:1001F000089588EB96E00E94ED0021E0892B09F438
:1002000020E0822F089580E090E0892B29F00E9461
:10021000F90081110C9400000895FC01A48DA80F31
:10022000B92FB11DA35ABF4F2C91848D90E0019638
:100230008F739927848FA689B7892C93A089B18958
:100240008C91837080648C93938D848D981306C0F9
:100250000288F389E02D80818F7D80830895EF925D
:10026000FF920F931F93CF93DF93EC0181E0888F70
:100270009B8D8C8D98131AC0E889F989808185FF40
:1002800015C09FB7F894EE89FF896083E889F989E2
:1002900080818370806480839FBF81E090E0DF91E4
:1002A000CF911F910F91FF90EF900895F62E0B8D37
:1002B00010E00F5F1F4F0F731127E02E8C8D8E11F2
:1002C0000CC00FB607FCFACFE889F989808185FF59
:1002D000F5CFCE010E940D01F1CFEB8DEC0FFD2F7C
:1002E000F11DE35AFF4FF0829FB7F8940B8FEA8914
:1002F000FB8980818062CFCFCF93DF93EC01888D23
:100300008823B9F0AA89BB89E889F9898C9185FD90
:1003100003C0808186FD0DC00FB607FCF7CF8C911E
:1003200085FFF2CF808185FFEDCFCE010E940D01C8
:10033000E9CFDF91CF910895833081F028F48130A7
:1003400099F08230A9F008958730A9F08830C9F07B
:100350008430B1F4809180008F7D03C08091800053
:100360008F7780938000089584B58F7784BD08953A
:1003700084B58F7DFBCF8091B0008F778093B000E4
:1003800008958091B0008F7DF9CFCF93DF93282F10
:1003900030E0F901E458FF4F8491F901E057FF4F35
:1003A000D491F901E255FF4FC491CC23A1F0811102
:1003B0000E949C01EC2FF0E0EE0FFF1FEE58FF4F64
:1003C000A591B491EC91ED2381E090E009F480E0F7
:1003D000DF91CF91089580E090E0FACF1F93CF9303
:1003E000DF93282F30E0F901E458FF4F8491F901A1
:1003F000E057FF4FD491F901E255FF4FC491CC2350
:10040000A9F0162F81110E949C01EC2FF0E0EE0F55
:10041000FF1FEC55FF4FA591B4918FB7F894EC9165
:10042000111108C0D095DE23DC938FBFDF91CF91EF
:100430001F910895DE2BF8CF9091040189130BC012
:10044000E2ECF0E0E4919FEF90930401E13049F099
:1004500028F0E23061F060E00C94EE0110926E0042
:10046000FACF90916F009D7F90936F00F4CF9091A1
:1004700070009D7F9093700091E09093B0009091F8
:10048000B100987F94609093B1001092B300E3CFD5
:10049000CF93DF9390E0FC01E057FF4F249182550A
:1004A0009F4FFC0184918823C9F090E0880F991F29
:1004B000FC01E859FF4FA591B491FC01EC55FF4FA9
:1004C000C591D49161110DC09FB7F8948C9120957E
:1004D00082238C938881282328839FBFDF91CF912B
:1004E0000895623051F49FB7F8943C91822F809523
:1004F00083238C93E8812E2BEFCF8FB7F894EC9168
:100500002E2B2C938FBFEACF4F925F926F927F92E8
:100510008F929F92AF92BF92CF92DF92EF92FF9213
:100520000F931F93CF93DF9300D000D01F92CDB7CE
:10053000DEB78C012A013B01809104018930C9F0AA
:100540008F3F09F47FC00F900F900F900F900F9086
:10055000DF91CF911F910F91FF90EF90DF90CF909F
:10056000BF90AF909F908F907F906F905F904F90D3
:100570000895E2ECF0E084918D8387FDE4CF61E0A3
:1005800089E00E9448028D81882321F09D8192306C
:1005900009F05CC14801B12CA12C60E072E18AE74E
:1005A00090E0A50198010E948C1129833A834B8326
:1005B0005C8369017A0181E0C81AD108E108F10879
:1005C0009FEFC916D104E104F10409F00CF413C142
:1005D00060E472E48FE090E0A50198010E948C1124
:1005E00069017A0181E0C81AD108E108F1089D810A
:1005F000923009F098C08FEFC816D104E104F104DD
:1006000009F00CF4DDC160E970ED83E090E0A50134
:1006100098010E948C1169017A0191E0C91AD108F0
:10062000E108F1088FEFC816D104E104F10411F0DC
:100630000CF0A3C183E09091B100987F892B809347
:10064000B100E1C089E080930401E2ECF0E0949114
:100650009D839F3F09F477CF913029F158F0923074
:1006600009F43FC08D8187FD6ECF61E089E00E9473
:1006700048028CCF14BC15BC84B5826084BD85B59E
:10068000816085BDE7EBF0E0E491F0E0EE0FFF1F45
:10069000EC55FF4F85919491E9E9F0E0E491E09306
:1006A000A3061D826CCF1092800010928100809171
:1006B00081008860809381008091810081608093B7
:1006C0008100E7EBF0E0E491F0E0EE0FFF1FEC5566
:1006D000FF4F85919491E9E9F0E0E491E093A2065F
:1006E0004ECF1092B0001092B1008091B0008260A5
:1006F0008093B0008091B10081608093B100E7EBFE
:10070000F0E0E491F0E0EE0FFF1FEC55FF4F859114
:1007100094919093A1068093A006E9E9F0E0E4911A
:10072000E0939F062CCF9FEFC916D104E104F1049A
:1007300009F00CF489C068E478EE81E090E0A5014E
:1007400098010E948C1169017A0181E0C81AD108D0
:10075000E108F1089D81992309F428C19FEFC9168A
:10076000D104E104F10409F00CF41EC162E17AE75E
:1007700080E090E0A50194010E948C1169017A014A
:1007800081E0C81AD108E108F1089D81992309F494
:10079000EBC08FEFC816D104E104F10411F008F0AA
:1007A000BFC086E048CF64E274EF80E090E0A5012E
:1007B00094010E948C1169017A0181E0C81AD10864
:1007C000E108F10885E09FEFC916D104E104F104C6
:1007D00009F008F430CF62E17AE780E090E0A5010B
:1007E00094010E948C1169017A0191E0C91AD10823
:1007F000E108F108CECF81E09D8191111CCF95B524
:10080000987F892B85BD2FEF3FEFA901411451043B
:100810006104710409F043C09D81913009F45EC008
:10082000923009F46DC091118ECEC7BC2093AC06F6
:100830003093AD064093AE065093AF0680916E00A4
:10084000826080936E007FCE82E0D6CFB12CA12C47
:1008500060E072E18AE790E0A50198010E948C11A6
:1008600069017A0181E0C81AD108E108F108C114D0
:10087000D10491E0E906F10404F591E08D81813025
:1008800011F680918100887F892B809381002FEF62
:100890003FEFA9014114510461047104F9F0D8013A
:1008A000AA0FBB1FA30192010E94AB1128EE33E0F7
:1008B00040E050E00E94BE11AFCF68E478EE81E0E6
:1008C00090E0A50198010E948C1169017A0181E0F4
:1008D000C81AD108E108F10893E0D0CFD09289007E
:1008E000C09288002093A8063093A9064093AA06D8
:1008F0005093AB0680916F00826080936F0023CE8F
:10090000C092B3002093A4063093A5064093A60698
:100910005093A7068091700082608093700013CE80
:10092000C980DA80EB80FC809AE0F594E794D79454
:10093000C7949A95D1F791E0C91AD108E108F10856
:1009400087E079CEC980DA80EB80FC808AE0F5947C
:10095000E794D794C7948A95D1F791E0C91AD10842
:10096000E108F10885E04BCF8FEFC816D104E10410
:10097000F10409F038F784E042CF68E478EE81E0D2
:1009800090E0A50198010E948C1169017A0191E023
:10099000C91AD108E108F1088FEFC816D104E104A3
:1009A000F10411F00CF0FFCE84E045CE8FEFC816B5
:1009B000D104E104F10411F00CF0D8CE83E01FCF94
:1009C00082E039CE3FB7F8948091870690918806EF
:1009D000A0918906B0918A0626B5A89B05C02F3F35
:1009E00019F00196A11DB11D3FBFBA2FA92F982F55
:1009F0008827BC01CD01620F711D811D911D42E050
:100A0000660F771F881F991F4A95D1F708958F9217
:100A10009F92AF92BF92CF92DF92EF92FF926B01C3
:100A20007C010E94E2044B015C01C114D104E10489
:100A3000F104B9F00E94E204681979098A099B0956
:100A4000683E73408105910580F321E0C21AD10808
:100A5000E108F10888EE880E83E0981EA11CB11C05
:100A6000E4CFFF90EF90DF90CF90BF90AF909F903A
:100A70008F9008950895089520911506260F332725
:100A8000331F21323105ECF420915E06FC0190E029
:100A900080E0243069F082E00895A091150621914C
:100AA000AC014B505A4FA40FB52FB11D2C9301969A
:100AB000861798F380911506680F6093150680E0FD
:100AC000089581E0089510925E0681E080935D06AE
:100AD0001092380661E082E10E94EE0161E083E15C
:100AE0000E94EE01E9EBF0E080818E7F80838081BF
:100AF0008D7F808388E48093B80085E48093BC0078
:100B00000895CF93DF9391E09093F4058823B9F093
:100B1000C091B800D091BA008091BC008A7B8093CC
:100B2000BC0060E082E10E94EE0160E083E10E948F
:100B3000EE010E946305D093BA00C093B800DF9124
:100B4000CF9108950895E091B7068091B606E81711
:100B500030F4F0E0EC52FA4F808190E008958FEF8E
:100B60009FEF08959091B7068091B6062FEF3FEF63
:100B7000981748F4E92FF0E0EC52FA4F208130E06A
:100B80009F5F9093B706C90108958091B606909132
:100B9000B706891B990B0895CF92DF92EF92FF92CF
:100BA0000F931F93CF93DF937C01CB018A01209198
:100BB0006406222389F0EB016B01C40ED51ECC150F
:100BC000DD0569F06991D701ED91FC910190F0810B
:100BD000E02DC7010995F3CF642F0E943C05C801A1
:100BE000DF91CF911F910F91FF90EF90DF90CF9009
:100BF0000895CF93DF931F92CDB7DEB7698320911D
:100C000064062223F9F02091B406203258F021E046
:100C100030E0FC013383228390E080E00F90DF918D
:100C2000CF9108958091B506E82FF0E0EB59F94F88
:100C3000998190838F5F8093B5068093B40681E09D
:100C400090E0ECCF61E0CE0101960E943C05F7CF29
:100C5000CF92DF92EF92FF920F931F93CF93DF9388
:100C6000FC01C48121E020936406C09385061092A4
:100C7000B5061092B4068385682B85E597E00E943F
:100C8000F905D091B406D13208F092C00E94E20476
:100C90006B017C0180915E06811165C082E08093CA
:100CA0005E0681E080935D068FEF80935C06109274
:100CB0005B06D0935A06A5E6B6E0EAE3F6E080E0EC
:100CC000D81385C01092390680913906CC0FC82BF5
:100CD000C093390680913806813009F07CC01092AB
:100CE00038060E94E2046B017C01809139068093F2
:100CF000BB008091600690916106A0916206B09160
:100D00006306892B8A2B8B2B99F00E94E2040091B9
:100D100060061091610620916206309163066C199D
:100D20007D098E099F090617170728073907E0F183
:100D30008091BC0083FDD9CF85EC8093BC000E94DC
:100D4000E2046B017C0180915E06823009F445C0AB
:100D500080915C068F3F61F180915C06803241F1A9
:100D600080915C0625C08091600690916106A091FB
:100D70006206B0916306892B8A2B8B2B09F48ACFEC
:100D80000E94E204009160061091610620916206C3
:100D9000309163066C197D098E099F0906171707A4
:100DA0002807390708F076CF80915F060E948105F9
:100DB0001092B5061092B40610926406DF91CF919E
:100DC0001F910F91FF90EF90DF90CF9008959D912C
:100DD00091938F5F75CF85EEB0CF80916006909133
:100DE0006106A0916206B0916306892B8A2B8B2B3A
:100DF00009F4A9CF0E94E2040091600610916106F7
:100E000020916206309163066C197D098E099F0955
:100E1000061717072807390708F095CFC5CF90E0C8
:100E200080E0089583E00E94C5010197A1F084E06D
:100E30000E94C501019779F085E00E94C5010197E4
:100E400051F086E00E94C501019729F087E00E94D9
:100E5000C501019739F708950F931F93CF938C0124
:100E6000C62F0E9428066C2F6460C8010E942806C5
:100E70006C2F6B7FC8010E94280683EC90E00197DD
:100E8000F1F7CF911F910F9108950F931F93CF9377
:100E9000DF938C01D62FC42F607F642B0E942C0718
:100EA00080E1D89FB00111246C2BC801DF91CF9154
:100EB0001F910F910C942C07CF93DF93CDB7DEB722
:100EC00028970FB6F894DEBF0FBECDBF98E0E9E0DB
:100ED000F1E0DE01119601900D929A95E1F7909163
:100EE0006907961708F46FEF262F30E0220F331FA3
:100EF00041E050E04C0F5D1F240F351FF901608168
:100F0000680F606840E081E697E028960FB6F89495
:100F1000DEBF0FBECDBFDF91CF910C94450740E0FF
:100F200061E081E697E00E9445078BE39FE101972E
:100F3000F1F70895CF93DF931092B7061092B6069B
:100F40001092B5061092B4060E9463058DE890E0F9
:100F50009093B3068093B2068EE890E09093B1062A
:100F60008093B0061092660780916B07823018F06C
:100F700098E0909366078093690762E370E080E0F1
:100F800090E00E94070560916C0781E697E00E945F
:100F9000280668EE73E080E090E00E94070560E3B9
:100FA00081E697E00E942C07CBE4D6E4CE010197BE
:100FB000F1F760E381E697E00E942C072197F1F7B3
:100FC00060E381E697E00E942C0783E592E00197B9
:100FD000F1F760E281E697E00E942C0760916607D6
:100FE000606240E081E697E00E94450784E08093DC
:100FF000670740E06CE081E697E00E9445070E94A9
:101000008F0782E08093680740E066E081E697E022
:101010000E94450740E062E081E697E00E944507B4
:101020008BE39FE10197F1F7DF91CF91089541E0C4
:101030000E94450781E090E00895FB0101900020A7
:10104000E9F73197AF01461B570BDC01ED91FC919D
:101050000280F381E02D09948F929F92AF92BF920C
:101060000F931F93CF93DF93CDB7DEB7A1970FB642
:10107000F894DEBF0FBECDBF19A2423008F44AE09B
:101080008E010F5D1F4F842E912CB12CA12CA50138
:1010900094010E94BE11E62FB901CA01EA3004F59D
:1010A000E05DD801EE938D01232B242B252B79F7BE
:1010B00090E080E0109729F0BD0181E697E00E9462
:1010C0001D08A1960FB6F894DEBF0FBECDBFDF910D
:1010D000CF911F910F91BF90AF909F908F900895E7
:1010E000E95CDFCFCF92DF92EF92FF926B017C0140
:1010F00041E06DE281E697E00E9445076627772789
:10110000CB016C197D098E099F094AE00E942C08C9
:101110000196FF90EF90DF90CF900895BC0181E69B
:1011200097E00C941D080E948F070E949A0760E0C8
:1011300080E00E945C0789ED94E00E948E0861E0E7
:1011400083E00E945C078AEE94E00C948E0883B7DB
:101150008E7F83BF64EF74E088EB96E00E941D08E9
:1011600062E075E088EB96E00E941D08E8988AE34B
:1011700095E09093010180930001089585ED80939F
:10118000BC008091600690916106A0916206B091CA
:1011900063060796A11DB11D23E0B695A795979507
:1011A00087952A95D1F72091BC0024FD03C01092A9
:1011B0005E06089540916006509161066091620656
:1011C00070916306452B462B472B69F30097A105C9
:1011D000B10541F025E32A95F1F700000197A10937
:1011E000B109E1CF80915F060C9481051F920F92A7
:1011F0000FB60F9211242F933F934F935F936F93EA
:101200007F938F939F93AF93BF93EF93FF938091BF
:10121000A4069091A506A091A606B091A706892BD9
:101220008A2B8B2BD1F190919F06E091A006F09133
:10123000A1068081892780838091A4069091A506CC
:10124000A091A606B091A706181619061A061B0645
:101250009CF48091A4069091A506A091A606B09159
:10126000A7060197A109B1098093A4069093A5064A
:10127000A093A606B093A706FF91EF91BF91AF91FF
:101280009F918F917F916F915F914F913F912F919E
:101290000F900FBE0F901F901895809104010E942F
:1012A0001C02EACF1F920F920FB60F9211242F93B8
:1012B0003F934F935F936F937F938F939F93AF93DE
:1012C000BF93EF93FF9388EB96E00E940D01FF918F
:1012D000EF91BF91AF919F918F917F916F915F91AE
:1012E0004F913F912F910F900FBE0F901F90189527
:1012F0001F920F920FB60F9211242F938F939F93EB
:10130000EF93FF93E091C806F091C9068081E091C8
:10131000CE06F091CF0682FD1BC090818091D10650
:101320008F5F8F732091D206821741F0E091D10632
:10133000F0E0E854F94F958F8093D106FF91EF913B
:101340009F918F912F910F900FBE0F901F90189526
:101350008081F4CF1F920F920FB60F9211242F931A
:101360003F938F939F93AF93BF93809193069091F8
:101370009406A0919506B09196063091860623E0DA
:10138000230F2D3758F50196A11DB11D2093860618
:101390008093930690939406A0939506B093960637
:1013A0008091870690918806A0918906B0918A065F
:1013B0000196A11DB11D8093870690938806A09386
:1013C0008906B0938A06BF91AF919F918F913F910B
:1013D0002F910F900FBE0F901F90189526E8230FA6
:1013E0000296A11DB11DD2CF1F920F920FB60F9280
:1013F00011242F933F934F935F936F937F938F931A
:101400009F93AF93BF93EF93FF93E0910201F0910D
:1014100003010995FF91EF91BF91AF919F918F913A
:101420007F916F915F914F913F912F910F900FBEE0
:101430000F901F9018951F920F920FB60F921124C4
:101440002F933F934F935F936F937F938F939F93CC
:10145000AF93BF93EF93FF93E0910001F0910101EF
:101460000995FF91EF91BF91AF919F918F917F91DE
:101470006F915F914F913F912F910F900FBE0F9001
:101480001F9018951F920F920FB60F9211242F9351
:101490003F934F935F936F937F938F939F93AF93FC
:1014A000BF93EF93FF938091B900887F803609F452
:1014B0004AC0F0F5883209F4A7C018F5803109F464
:1014C0009BC0B8F4882309F4F9C0883009F494C0AB
:1014D000FF91EF91BF91AF919F918F917F916F910C
:1014E0005F914F913F912F910F900FBE0F901F90E2
:1014F0001895883109F488C0803251F780935C06D2
:1015000014C0803409F49DC040F48033B9F38833AB
:10151000F9F680935C0685ECB0C0803509F485C08F
:10152000883509F496C0883499F60E94BE08D0CF59
:10153000883909F48CC038F5883729F050F488369A
:1015400011F0803729F683E080935E06109237060B
:1015500057C0883809F47BC0803919F0803809F009
:10156000B7CF80913706803208F071C0E09137061E
:1015700081E08E0F809337068091BB00F0E0E95E3A
:10158000F94F80833DC0803B39F0E0F4803A09F4A4
:1015900079C0883A09F09CCF84E080935E0610926F
:1015A000160610921506E091B206F091B306099561
:1015B0008091150681110FC081E08093150610926D
:1015C000F50509C0803C09F4A6CF883C09F4A3CFF7
:1015D000883B09F07DCFE091160681E08E0F809365
:1015E0001606F0E0EB50FA4F80818093BB0090919B
:1015F00016068091150629C0809139068093BB009C
:1016000085EC8093BC0064CF90915B0680915A0674
:10161000981758F5E0915B0681E08E0F80935B068A
:10162000F0E0E65CF94F8081E9CFE0915B0681E074
:101630008E0F80935B068091BB00F0E0E65CF94F73
:10164000808390915B0680915A069817C8F285E8CE
:10165000D8CFE0915B0681E08E0F80935B0680918E
:10166000BB00F0E0E65CF94F808380915D0681115C
:101670005CCF81E08093380684EA8093BC001092AE
:101680005E0626CF85EC8093BC0010925E068091AA
:101690003706803230F4E0913706F0E0E95EF94F2A
:1016A00010826091370670E0E091B006F091B106CB
:1016B00087E196E00995109237060ACF10925C06F2
:1016C00034CFE8EBF6E01382128288EE93E0A0E0DC
:1016D000B0E084839583A683B7832DEA34E0318319
:1016E000208325EC30E03587248724EC30E03787F1
:1016F000268720EC30E0318B208B21EC30E0338BDF
:10170000228B22EC30E0358B248B26EC30E0378BBB
:10171000268B118E128E138E148EE5E5F7E0138260
:10172000128284839583A683B7838FEB94E09183A1
:101730008083E1E6F7E01382128281ED94E09183E9
:10174000808387E2848380E1818782E082871386B9
:101750000895CF93DF9300D000D0CDB7DEB7789453
:1017600084B5826084BD84B5816084BD85B58260A6
:1017700085BD85B5816085BD80916E008160809357
:101780006E001092810080918100826080938100C0
:1017900080918100816080938100809180008160D0
:1017A000809380008091B10084608093B10080912B
:1017B000B00081608093B00080917A008460809353
:1017C0007A0080917A00826080937A0080917A001A
:1017D000816080937A0080917A00806880937A009B
:1017E0001092C100E091C806F091C90682E08083A2
:1017F000E091C406F091C5061082E091C606F09112
:10180000C7068FEC80831092D006E091CC06F09151
:10181000CD0686E08083E091CA06F091CB068081F8
:1018200080618083E091CA06F091CB068081886058
:101830008083E091CA06F091CB0680818068808326
:10184000E091CA06F091CB0680818F7D808361E0B4
:1018500089E00E94480261E088E00E94480261E05D
:101860008AE00E94480261E08BE00E94480261E049
:101870008CE00E94480261E08DE00E94480260E036
:101880008FE00E94480260E080E10E94480260E030
:1018900081E10E94480260E083E00E94480260E02B
:1018A00084E00E94480260E085E00E94480260E017
:1018B00086E00E94480260E087E00E94480262E001
:1018C00082E00E9448020E949A0788E080936C0799
:1018D00060E081E697E00E94280660E083E00E94D5
:1018E0005C0785E095E00E948E0861E081E00E943F
:1018F0005C0780E195E00E948E0860ED77E080E073
:1019000090E00E9407050E94930825E0422E512C8A
:10191000612C712C30E0232E30E0332E07EA18E0E2
:1019200068EE73E080E090E00E9407058FE00E947F
:10193000C501019709F097C10E948F0760E081E01F
:101940000E945C078FE195E00E948E0868EE73E0CC
:1019500080E090E00E9407050E948F078FE295E0EB
:101960000E948E0868EE73E080E090E00E94070518
:101970000E941207109292061092910684E095E060
:101980000E948E0884E095E00E948E0884E095E035
:101990000E948E080E948F078EE395E00E948E08B9
:1019A00061E080E00E945C0788E495E00E948E0878
:1019B00060ED77E080E090E00E9407050E948F07CD
:1019C00060E080E00E945C0787E595E00E948E0859
:1019D00068EE73E080E090E00E9407050E948F07A8
:1019E00082E695E00E948E0868EE73E080E090E069
:1019F0000E9407050E948F078BE695E00E948E08E3
:101A00001092900610928F0680918F06909190060A
:101A1000823491050CF0B8C00E943411A3019201E8
:101A20000E948C1170939C0660939B0610928E0608
:101A300010928D06660F771FFB01E156FB4F61E0A8
:101A400080810E94EE01E0918F06F0919006EE0FEA
:101A5000FF1FEE0FFF1FEB56FE4F608171818281E9
:101A600093810E946112CB0140E050E0BA010E94D4
:101A7000840210928C0610928B06E0908F06F090F4
:101A80009006F701EE0FFF1FEF5EFE4FC080D18082
:101A900020919B0630919C06C60166E070E00E9492
:101AA000B91380918B0690918C06220F331F3A83D5
:101AB0002983861797070CF047C061E070E080E04B
:101AC00090E00E94070589819A818B569B4FDC012B
:101AD0008C910E94C50181309105A1F420918D0661
:101AE00030918E06232B71F420919106309192064D
:101AF0002F5F3F4F309392062093910690938E066E
:101B000080938D0661E080E00E945C078FE695E09F
:101B10000E948E086091910670919206072E000C2B
:101B2000880B990B97FF0CC00E94720880918B065E
:101B300090918C06019690938C0680938B069DCF96
:101B40004AE00E942C08F2CF89E00E941C02E98141
:101B5000FA81E156FB4F60E080810E94EE01B60100
:101B600077FF02C06F5F7F4F75956795072E000C5A
:101B7000880B990B0E940705FFEFEF1AFF0AF092FE
:101B80009006E0928F0640CF60ED77E080E090E035
:101B90000E9407050E948F0786E795E00E948E0845
:101BA00068EE73E080E090E00E94070560E080E06E
:101BB0000E945C078CE795E00E948E080E94120745
:101BC00064EF71E080E090E00E9407050E949308B6
:101BD00010929E0610929D0680919D0690919E0601
:101BE000069764F183B7817F846083BF83B7816088
:101BF00083BF0E948F076FEC75E088EB96E00E9430
:101C00001D0862E075E088EB96E00E941D081093C5
:101C1000010100930001809169008C7F809369002D
:101C2000E89A68EE73E080E090E00E9407058895EE
:101C30000E94930810929E0610929D0680919D0628
:101C400090919E06019690939E0680939D06211486
:101C5000310409F465CE0E94F900882309F460CEAE
:101C60000E9400005DCE80E10E94C501019709F04D
:101C700034C10E948F0760E082E00E945C078AE81E
:101C800095E00E948E0868EE73E080E090E00E948C
:101C900007050E948F0760E080E00E945C0784E0F7
:101CA00095E00E948E088FE295E00E948E080E94C7
:101CB0001207109292061092910684E095E00E941D
:101CC0008E0884E095E00E948E0884E095E00E94F2
:101CD0008E080E948F0785E995E00E948E0861E0DA
:101CE00080E00E945C078EE995E00E948E0860ED1E
:101CF00077E080E090E00E9407050E948F0787E56B
:101D000095E00E948E0868EE73E080E090E00E940B
:101D100007050E948F0782E695E00E948E0868EE14
:101D200073E080E090E00E9407050E948F078BE639
:101D300095E00E948E081092900610928F06809176
:101D40008F06909190068435910521F410929006AB
:101D500010928F060E943411A30192010E948C11EF
:101D600070939C0660939B0610928E0610928D06CF
:101D7000660F771FFB01E156FB4F61E080810E94F7
:101D8000EE01E0918F06F0919006EE0FFF1FEE0F2F
:101D9000FF1FEB5BFC4F60817181828193810E9408
:101DA0006112CB0140E050E0BA010E94840210921F
:101DB0008C0610928B06E0908F06F0909006F7014B
:101DC000EE0FFF1FE356FD4FC080D18020919B0690
:101DD00030919C06C60165E070E00E94B9138091C5
:101DE0008B0690918C06220F331F3A832983861726
:101DF00097070CF047C061E070E080E090E00E943F
:101E0000070589819A818B569B4FDC018C910E943A
:101E1000C50181309105A1F420918D0630918E0687
:101E2000232B71F420919106309192062F5F3F4F42
:101E3000309392062093910690938E0680938D06A0
:101E400061E080E00E945C078FE695E00E948E08CA
:101E50006091910670919206072E000C880B990BE9
:101E600097FF0CC00E94720880918B0690918C069F
:101E7000019690938C0680938B069DCF4AE00E943A
:101E80002C08F2CF89E00E941C02E981FA81E15618
:101E9000FB4F60E080810E94EE01B60177FF02C037
:101EA0006F5F7F4F75956795072E000C880B990B18
:101EB0000E940705FFEFEF1AFF0AF0929006E092EA
:101EC0008F0680918D0690918E06892B09F037CF71
:101ED00068EB7BE080E090E05BCE81E10E94C50191
:101EE000019709F079CE0E948F0760E081E00E949F
:101EF0005C0788EA95E00E948E0868EE73E080E057
:101F000090E00E9407050E948F0760E080E00E9439
:101F10005C0784E095E00E948E088FE295E00E94C5
:101F20008E080E94120784E095E00E948E0884E0EB
:101F300095E00E948E0884E095E00E948E080E9441
:101F40008F0787E595E00E948E0868EE73E080E0D9
:101F500090E00E9407050E948F0782E695E00E94AC
:101F60008E0868EE73E080E090E00E9407050E9412
:101F7000341128E833E140E050E00E948C110E94C7
:101F800007050E948F070E943411A30192010E944D
:101F90008C1170939C0660939B068BE695E00E94E3
:101FA0008E082FB7F89460919306709194068091F3
:101FB0009506909196062FBF0E9490126093970607
:101FC000709398068093990690939A0620919B06A9
:101FD00030919C06220F331F3A832983F901E15681
:101FE000FB4FF08061E08F2D0E94EE0148EC50E045
:101FF00060E070E080E793E00E94840289819A812A
:102000008B569B4FDC01BC91B98389810E94C5012D
:10201000892BD9F360E08F2D0E94EE0161E080E012
:102020000E945C0788EB95E00E948E082FB7F89419
:102030006091930670919406809195069091960612
:102040002FBF0E94901220919706309198064091E0
:10205000990650919A060E94EF116B017C014B0189
:102060005C01C0929706D0929806E0929906F09291
:102070009A0661E088E00E945C07A7019601C7010B
:10208000B6010E94B41360EC75E081111FC0D70146
:10209000C601BF7789839A83AB83BC832FEF3FEF61
:1020A0004FE75FE7BC01CD010E94B413811115C059
:1020B0002FEF3FEF4FE75FE769817A818B819C814A
:1020C0000E945C1218164CF464EC75E081E697E00F
:1020D0000E941D088CEC95E061CD2FEF3FEF4FE79C
:1020E0005FE4C701B6010E94421318161CF468ECA5
:1020F00075E0ECCF2FEF3FEF4FE75FECC701B60184
:102100000E945C1287FDF3CF20E030E0A901C701F7
:10211000B6010E945C1287FF0CC041E06DE281E6CF
:1021200097E00E94450746015701B7FAB094B7F807
:10213000B0942AE037ED43EA5BE3C501B4010E94A5
:10214000F0114B015C010E9461126B017C010E9445
:1021500090129B01AC01C501B4010E94EF114B012B
:102160005C014AE0C701B6010E942C0841E06EE222
:1021700081E697E00E94450720E030E040E251E42C
:10218000C501B4010E9447134B015C010E9461121A
:102190006B01F12CE12C4AE0C701B6010E942C082A
:1021A000C701B6010E9490129B01AC01C501B401A8
:1021B0000E94EF1120E030E040E251E40E9447131A
:1021C0000E94611290E080E04AE00E942C0882CFD9
:1021D0008F929F92AF92BF92CF92DF92EF92FF9237
:1021E000CF93DF93EC01688179818A819B816115AE
:1021F00071058105910521F464E279ED8BE597E0A5
:102200002DE133EF41E050E00E948C1149015A0169
:102210009B01AC01A7EAB1E40E94AB116B017C0108
:10222000ACEEB4EFA50194010E94B911C60ED71E01
:10223000E81EF91EF7FE06C081E0C81AD108E108C1
:1022400080E8F80AC882D982EA82FB82C701B60117
:102250009F77DF91CF91FF90EF90DF90CF90BF906D
:10226000AF909F908F9008958F929F92AF92BF9260
:10227000CF92DF92EF92FF9260910501709106017B
:102280008091070190910801611571058105910503
:1022900021F464E279ED8BE597E02DE133EF41E045
:1022A00050E00E948C1149015A019B01AC01A7EA40
:1022B000B1E40E94AB116B017C01ACEEB4EFA5015F
:1022C00094010E94B911C60ED71EE81EF91EF7FE32
:1022D00006C081E0C81AD108E10880E8F80AC09277
:1022E0000501D0920601E0920701F0920801C701B2
:1022F000B6019F77FF90EF90DF90CF90BF90AF90A7
:102300009F908F90089560930501709306018093CC
:102310000701909308010895052E97FB1EF4009481
:102320000E94A31157FD07D00E94BE1107FC03D0E5
:102330004EF40C94A31150954095309521953F4F44
:102340004F4F5F4F089590958095709561957F4FA1
:102350008F4F9F4F08950E94E011A59F900DB49F4D
:10236000900DA49F800D911D11240895B7FF0C942A
:10237000AB110E94AB11821B930B0895A1E21A2EA0
:10238000AA1BBB1BFD010DC0AA1FBB1FEE1FFF1F19
:10239000A217B307E407F50720F0A21BB30BE40B69
:1023A000F50B661F771F881F991F1A9469F76095B0
:1023B0007095809590959B01AC01BD01CF0108956A
:1023C000A29FB001B39FC001A39F700D811D112476
:1023D000911DB29F700D811D1124911D08955058BB
:1023E000BB27AA270E9407120C9408130E94FA1216
:1023F00038F00E94011320F039F49F3F19F426F4BD
:102400000C94F7120EF4E095E7FB0C94F112E92F0F
:102410000E94191358F3BA176207730784079507C8
:1024200020F079F4A6F50C943B130EF4E0950B2EF6
:10243000BA2FA02D0B01B90190010C01CA01A00116
:102440001124FF27591B99F0593F50F4503E68F171
:102450001A16F040A22F232F342F4427585FF3CFB2
:10246000469537952795A795F0405395C9F77EF483
:102470001F16BA0B620B730B840BBAF09150A1F0CC
:10248000FF0FBB1F661F771F881FC2F70EC0BA0F52
:10249000621F731F841F48F4879577956795B795DA
:1024A000F7959E3F08F0B0CF9395880F08F09927D5
:1024B000EE0F9795879508950E94CD1208F481E05C
:1024C00008950E94211388F09F5798F0B92F9927FB
:1024D000B751B0F0E1F0660F771F881F991F1AF00F
:1024E000BA95C9F714C0B13091F00E943B13B1E026
:1024F00008950C943B13672F782F8827B85F39F025
:10250000B93FCCF3869577956795B395D9F73EF4A7
:1025100090958095709561957F4F8F4F9F4F08954F
:10252000E89409C097FB3EF490958095709561956D
:102530007F4F8F4F9F4F9923A9F0F92F96E9BB2723
:102540009395F695879577956795B795F111F8CF9F
:10255000FAF4BB0F11F460FF1BC06F5F7F4F8F4F0A
:102560009F4F16C0882311F096E911C0772321F000
:102570009EE8872F762F05C0662371F096E8862F98
:1025800070E060E02AF09A95660F771F881FDAF7EF
:10259000880F9695879597F90895990F0008550F1C
:1025A000AA0BE0E8FEEF16161706E807F907C0F0D9
:1025B00012161306E407F50798F0621B730B840BE1
:1025C000950B39F40A2661F0232B242B252B21F4BB
:1025D00008950A2609F4A140A6958FEF811D811D5B
:1025E000089597F99F6780E870E060E008959FEF95
:1025F00080EC089500240A9416161706180609069A
:10260000089500240A941216130614060506089568
:10261000092E0394000C11F4882352F0BB0F40F4F0
:10262000BF2B11F460FF04C06F5F7F4F8F4F9F4F30
:10263000089557FD9058440F551F59F05F3F71F0B2
:102640004795880F97FB991F61F09F3F79F0879519
:102650000895121613061406551FF2CF4695F1DFA2
:1026600008C0161617061806991FF1CF8695710532
:10267000610508940895E894BB2766277727CB0166
:1026800097F908950E94CD1208F48FEF08950E94E3
:102690005A130C9408130E94FA1238F00E94011386
:1026A00020F0952311F00C94F1120C94F7121124E0
:1026B0000C943C130E94191370F3959FC1F3950F6E
:1026C00050E0551F629FF001729FBB27F00DB11DB6
:1026D000639FAA27F00DB11DAA1F649F6627B00D46
:1026E000A11D661F829F2227B00DA11D621F739F2F
:1026F000B00DA11D621F839FA00D611D221F749F3D
:102700003327A00D611D231F849F600D211D822F83
:10271000762F6A2F11249F5750409AF0F1F08823AA
:102720004AF0EE0FFF1FBB1F661F771F881F9150D7
:102730005040A9F79E3F510580F00C94F1120C9483
:102740003C135F3FE4F3983ED4F386957795679505
:10275000B795F795E7959F5FC1F7FE2B880F911D01
:102760009695879597F908950E94CD12880B990B3D
:10277000089597FB072E16F4009407D077FD09D033
:102780000E94CD1307FC05D03EF4909581959F4F94
:102790000895709561957F4F0895AA1BBB1B51E169
:1027A00007C0AA1FBB1FA617B70710F0A61BB70BC1
:1027B000881F991F5A95A9F780959095BC01CD0166
:1027C0000895EE0FFF1F0590F491E02D0994F89401
:0227D000FFCF39
:1027D2003A053A05FF0100000000004000140054D1
:1027E20000F401F401F4015E019600F4015E019629
:1027F200008A02F401F401F4015E019600F4015E24
:102802000196008A02F4012C019600F4014501AF01
:102812000096009600FA00FA00F4014501AF009616
:10282200009600FA00FA00F4015E019600F40177C6
:102832000196008A02F4012C019600F4014501AFD1
:102842000096009600FA00FA00F4014501AF0096E6
:10285200009600FA00FA00F40177019600F401777D
:102862000196008A020000DC430000DC430000DC29
:10287200430080AE4300C002440000DC430080AE4F
:102882004300C002440000DC4300C0244400C024D2
:102892004400C0244400802E4400C002440080CF83
:1028A200430080AE4300C002440000DC4300005CF1
:1028B200440000DC430000DC4300005C4400804F25
:1028C20044000044440000394400802E4400003992
:1028D200440080E34300801B4400C0124400800A8D
:1028E2004400C002440000E94300C002440080AE3C
:1028F200430080CF430080AE430000DC4300C002AF
:10290200440000DC4300C0024400C0244400005CD8
:10291200440000DC430000DC4300005C4400804FC4
:1029220044000044440000394400802E4400003931
:10293200440080E34300801B4400C0124400800A2C
:102942004400C002440000E94300C002440080AEDB
:10295200430080CF430080AE4300C002440000DC4D
:10296200430080AE4300C002440000DC432C012C33
:10297200012C012C012C012C012C012C0184032C93
:10298200012C012C0184032C012C012C0184032C29
:10299200012C012C012C012C012C012C012C018475
:1029A200032C012C012C0184032C012C012C018409
:1029B200032C012C012C0184032C012C012C0184F9
:1029C200032C012C012C0184032C012C012C0184E9
:1029D200032C012C012C012C012C012C012C012C8B
:1029E2000184032C012C012C0184032C012C012CC9
:1029F2000184032C012C012C012C012C012C012C13
:102A0200012C0184032C012C012C0184032C012CA8
:102A1200012C018403A4D0A443A4909B43A4D0A47A
:102A220043A4909B43A4D0A443A4F076437BD492C6
:102A320043A4D0824300005C437BD41243299C2EE2
:102A42004300005C43A4F07643299C2E437B146927
:102A520043A4F07643A4D08243A4D0A443A4909B81
:102A620043A4D0A443A4909B43A4D0A443A4F0764F
:102A7200437BD49243A4D0824300005C437BD412B4
:102A820043299C2E4300005C43A4F07643299C2EEC
:102A920043A4D08243A4F0764300005C43A4F076C2
:102AA20043A4D082437BD49243A4D0A443000044E5
:102AB20043719DAE43719DA443A4D092435CCF2445
:102AC20043A4D0A443A4D09243A4D082437BD41283
:102AD20043A4D09243A4D08243A4F07643A4D0A4CA
:102AE20043A4909B43A4D0A443A4909B43A4D0A40A
:102AF20043A4F076437BD49243A4D0824300005C8B
:102B0200437BD41243299C2E4300005C43A4F076FD
:102B120043299C2E437B146943A4F07643A4D082BC
:102B220043A4D0A443A4909B43A4D0A443A4909BC9
:102B320043A4D0A443A4F076437BD49243A4D0828E
:102B42004300005C437BD41243299C2E4300005C6B
:102B520043A4F07643299C2E43A4D08243A4F0766A
:102B62004300005C43030004000500060007000860
:102B7200000A000B000C000D00000000002F018F66
:102B820000BC007C01ED00CB00DF0000000000F97A
:102B920005CC050F07A205C505B205A30500000077
:102BA2000017088F000F073B05312E5069616E6FC9
:102BB20020322E41726361646500332E20526566B5
:102BC2006C6578004869212049276D204177616B47
:102BD20065000D0A0057656C636F6D6520546F00C8
:102BE2002D2046756E20696E204F6E65202D002DBA
:102BF2002D5049414E4F2054494C45532D2D0050E4
:102C02007265737320746F20737461727400504C18
:102C12004159494E473A2000494D50455249414C8D
:102C2200204D4152434800476574205265616479E2
:102C32002100476574205365742100476F210053BA
:102C4200636F72653A00446F6E652100507265735E
:102C52007320746F20636F6E74002D2D41524341B7
:102C620044452D2D00504C4159494E473A00465596
:102C72005220454C495345002D2D5245464C45584E
:102C820020544553542D2D00526573756C743A00CF
:102C92006E616E00696E66006F7666006D73005A33
:042CA2007A7A00003A
:00000001FF
